S01300006C65616B5F73656E736F722E737265637B
S11300000C9434000C94C5000C9406010C9451001B
S11300100C9451000C9451000C9447010C94510021
S11300200C9451000C9451000C9451000C94510008
S11300300C9451000C9451000C9451000C945100F8
S11300400C9451000C9451000C94B5000C94510084
S11300500C9451000C9451000C9451000C945100D8
S11300600C9451000C94510011241FBECFEFD8E022
S1130070DEBFCDBF11E0A0E0B1E0EEE3F6E002C0E8
S113008005900D92A235B107D9F721E0A2E5B1E0C0
S113009001C01D92AB35B207E1F70E94F7010C9441
S11300A01D030C9400008AB1837F8AB98AB18063EE
S11300B08AB98BB1837E8BB98BB180628BB9089579
S11300C09093C5008093C400E1ECF0E088E1808364
S11300D08EE08093C200808180688083089590912F
S11300E0C00095FFFCCF8093C6000895EF92FF9265
S11300F00F931F93CF93DF937C01FC0101900020A9
S1130100E9F731978F01081B190BC0E0D0E007C055
S1130110F701EC0FFD1F80810E946F002196C0172C
S1130120D107B4F38AE00E946F00DF91CF911F9151
S11301300F91FF90EF9008958BB180638BB9089570
S11301408BB18F7C8BB9089529B130E0209530951F
S113015002C0359527958A95E2F720FF03C081E018
S113016090E0089580E090E008951F920F920FB6FA
S11301700F9211248F938091C600809356018F9122
S11301800F900FBE0F901F9018951F920F920FB6ED
S11301900F9211242F933F934F935F936F937F9309
S11301A08F939F93AF93BF93EF93FF9383B78E7F08
S11301B083BFE0E6F0E08081877B80838DB38E7F10
S11301C08DBB8DB38D7F8DBB81E090E09093530107
S11301D08093520180E38093560180E89EE39093DC
S11301E05501809354010E949C00FF91EF91BF91AF
S11301F0AF919F918F917F916F915F914F913F91BB
S11302002F910F900FBE0F901F9018951F920F9271
S11302100FB60F9211242F933F934F935F936F93D5
S11302207F938F939F93AF93BF93EF93FF9383B782
S11302308E7F83BFE0E6F0E08081877B80838DB38F
S11302408E7F8DBB8DB38D7F8DBB81E090E09093CD
S113025053018093520180E38093560180E89EE32A
S113026090935501809354010E949C00FF91EF915B
S1130270BF91AF919F918F917F916F915F914F91BA
S11302803F912F910F900FBE0F901F9018951F92C2
S11302900F920FB60F9211242F933F934F935F93B6
S11302A06F937F938F939F93AF93BF93EF93FF933A
S11302B04A9B06C08091590190915A010197C1F05F
S11302C04A9906C08091590190915A01892B81F075
S11302D04B9B06C08091570190915801019741F0C2
S11302E04B9925C08091570190915801892BF9F4BD
S11302F083B78E7F83BFE0E6F0E08081877B8083D5
S11303008DB38D7F8DBB8DB38E7F8DBB81E090E0EF
S1130310909353018093520180E38093560180E8C7
S11303209EE390935501809354010E949C004A9946
S113033018C04B9911C015C09BB180E289278BB9B5
S11303404FEF83EC99E0415080409040E1F700C0CA
S113035000002F5F3F4F02C020E030E02430310521
S11303605CF34A9B18C04B9B11C015C09BB180E243
S113037089278BB94FEF83EC99E04150804090403E
S1130380E1F700C000002F5F3F4F02C020E030E0E3
S1130390283031055CF34A9918C04B9B11C015C035
S11303A09BB180E289278BB94FEF83EC99E04150F0
S11303B080409040E1F700C000002F5F3F4F02C033
S11303C020E030E0203131055CF3A895FF91EF91F6
S11303D0BF91AF919F918F917F916F915F914F9159
S11303E03F912F910F900FBE0F901F901895CF93B0
S11303F0DF93CDB7DEB728970FB6F894DEBF0FBEF4
S1130400CDBF0E9453008FEC90E00E94600078946E
S113041088E0E0E0F1E0DE01119601900D928A950A
S1130420E1F72FEF49E688E1215040408040E1F7B1
S113043000C000008BB180618BB99FEF23ED40E3D6
S1130440915020404040E1F700C0000080E38093D9
S1130450560180E89EE3909355018093540181E016
S113046090E0909353018093520108E110E0809151
S1130470520190915301019709F0DDC082E090E0B0
S11304800E94A40090935A018093590183E090E064
S11304900E94A40090935801809357012091560123
S11304A0213309F447C0209154013091550120387B
S11304B03E4309F03FC008311105E1F5209159018F
S11304C030915A01232B31F4892B21F489819A81AB
S11304D00E9476008091590190915A01019751F43C
S11304E08091570190915801892B21F48B819C8133
S11304F00E9476008091590190915A01892B51F400
S11305008091570190915801019721F48D819E812A
S11305100E9476008091590190915A01019751F4FB
S11305208091570190915801019721F48F8198850A
S11305300E94760080915401909155011816190675
S113054064F080E89EE39093550180935401101663
S113055011064CF40150110908C0019790935501FC
S11305608093540102C008E110E080915601813368
S113057009F061C00E94A000109253011092520130
S11305804A9B16C04B9B14C08DB382608DBBE9E6B9
S1130590F0E08081837F80838DB381608DBB808117
S11305A08C7F808383B7816083BF83B7846083BF7C
S11305B04A9917C04B9B15C08DB382608DBBE9E689
S11305C0F0E08081837F8083E0E6F0E080818861D1
S11305D0808387E4808383B7816083BF83B784602B
S11305E083BF4A9B17C04B9915C08DB381608DBBE7
S11305F0E9E6F0E080818C7F8083E0E6F0E08081B2
S11306008861808380E6808383B7816083BF83B7FA
S1130610846083BF4A990FC04B990DC0E0E6F0E0B7
S113062080818861808381E6808383B7816083BF12
S111063083B7846083BF88951ACFF894FFCFF8
S113063E080116012D013B014E6F206C65616B2183
S113064E2026204742004C65616B20697320646547
S113065E746563746564212026204742004E6F2022
S113066E6C65616B212026204C42004C65616B2029
S113067E6973206465746563746564212026204C57
S105068E420024
S9030000FC
